:100000000C94F3000C941B010C941B010C94B1187C
:100010000C94B1180C94B1180C941B010C941B0196
:100020000C941B010C941B010C941B010C941B01E0
:100030000C941B010C941B010C941B010C941B01D0
:100040000C9467180C941B010C9435180C940F1821
:100050000C941B010C941B010C941B010C941B01B0
:100060000C9429190C941B0100407A10F35A00A03B
:10007000724E18090010A5D4E80000E87648170071
:1000800000E40B54020000CA9A3B000000E1F505B1
:10009000000080969800000040420F000000A086FB
:1000A00001000000102700000000E803000000002D
:1000B0006400000000000A000000000001000000D1
:1000C00000002C76D888DC674F0823DFC1DFAE59EB
:1000D000E1B1B796E5E3E453C63AE651997696E87E
:1000E000E6C28426EB898C9B62ED407C6FFCEFBC02
:1000F0009C9F40F2BAA56FA5F490055A2AF75C932D
:100100006B6CF9676DC11BFCE0E40D47FEF520E662
:10011000B500D0ED902E0300943577050080841E45
:10012000080000204E0A000000C80C333333330FA0
:10013000986E12831141EF8D2114893BE65516CF3D
:10014000FEE6DB18D1844B381BF77C1D901DA4BB49
:10015000E424203284725E228100C9F124ECA1E5FE
:100160003D27202020202020200000000008000241
:100170000100000304070000000000000000000070
:100180000000240027002A0030323A32323A303858
:10019000004A756C203230203230323100000000CD
:1001A0000023002600290000000000250028002B65
:1001B0000004040404040404040202020202020310
:1001C000030303030301020408102040800102041A
:1001D0000810200102040810201F1C1F1E1F1E1FD4
:1001E0001F1E1F1E5F1A11241FBECFEFD8E0DEBFF7
:1001F000CDBF12E0A0E0B1E0E2EEF7E502C005906D
:100200000D92A23AB107D9F726E0A2EAB2E001C006
:100210001D92A735B207E1F710E0C3EFD0E004C0AC
:100220002197FE010E94AB28C23FD107C9F70E9467
:10023000A71B0C94EF2B0C94000008958CBD9DBD62
:10024000089591E09093870480938604109285042A
:1002500010928404089508950895AF92BF92CF92AA
:10026000DF92EF92FF920F931F93CF93DF936C0176
:100270007B018B01040F151FEB015E01AE18BF0857
:10028000C017D10759F06991D601ED91FC91019009
:10029000F081E02DC6010995892B79F7C501DF9121
:1002A000CF911F910F91FF90EF90DF90CF90BF9073
:1002B000AF900895FC01448155816081718187E48C
:1002C00096E00C942D01FC01538D448D252F30E0D8
:1002D000842F90E0821B930B541710F0CF96089553
:1002E00001970895FC01918D828D981761F0A28D80
:1002F000AE0FBF2FB11D5D968C91928D9F5F9F7346
:10030000928F90E008958FEF9FEF0895FC01918DFB
:10031000828D981731F0828DE80FF11D858D90E068
:1003200008958FEF9FEF0895FC01918D228D892F05
:1003300090E0805C9F4F821B91098F7399270895ED
:1003400088ED94E00E94940121E0892B09F420E0DB
:10035000822F089580E090E0892B29F00E94A0016F
:1003600081110C9400000895FC01A48DA80FB92FF1
:10037000B11DA35ABF4F2C91848D90E001968F73CD
:100380009927848FA689B7892C93A089B1898C91EC
:10039000837080648C93938D848D981306C002883B
:1003A000F389E02D80818F7D80830895EF92FF9205
:1003B0000F931F93CF93DF93EC0181E0888F9B8D88
:1003C0008C8D98131AC0E889F989808185FF15C042
:1003D0009FB7F894EE89FF896083E889F989808165
:1003E0008370806480839FBF81E090E0DF91CF9134
:1003F0001F910F91FF90EF900895F62E0B8D10E056
:100400000F5F1F4F0F731127E02E8C8D8E110CC0C4
:100410000FB607FCFACFE889F989808185FFF5CF0F
:10042000CE010E94B401F1CFEB8DEC0FFD2FF11D39
:10043000E35AFF4FF0829FB7F8940B8FEA89FB894C
:1004400080818062CFCFCF93DF93EC01888D8823AA
:10045000B9F0AA89BB89E889F9898C9185FD03C027
:10046000808186FD0DC00FB607FCF7CF8C9185FF0C
:10047000F2CF808185FFEDCFCE010E94B401E9CF9C
:10048000DF91CF910895833081F028F4813099F085
:100490008230A9F008958730A9F08830C9F08430FF
:1004A000B1F4809180008F7D03C0809180008F77B0
:1004B00080938000089584B58F7784BD089584B5B6
:1004C0008F7DFBCF8091B0008F778093B00008952F
:1004D0008091B0008F7DF9CFCF93DF93282F30E04C
:1004E000F901E659FE4F8491F901EB53FE4FD49187
:1004F000F901EF54FE4FC491CC23A1F081110E9469
:100500004302EC2FF0E0EE0FFF1FE356FE4FA591E4
:10051000B491EC91ED2381E090E009F480E0DF916B
:10052000CF91089580E090E0FACF1F93CF93DF93AF
:10053000282F30E0F901E659FE4F8491F901EB5381
:10054000FE4FD491F901EF54FE4FC491CC23A9F092
:10055000162F81110E944302EC2FF0E0EE0FFF1FD7
:10056000E955FE4FA591B4918FB7F894EC91111114
:1005700008C0D095DE23DC938FBFDF91CF911F9110
:100580000895DE2BF8CFEF92FF920F931F93CF9336
:10059000DF9390911C069F3F71F48EBD00000DB457
:1005A00007FEFDCFCEB58C2FDF91CF911F910F911C
:1005B000FF90EF900895D82FC0E007E010E0EE2400
:1005C000E394F12CCC0F60E080911C060E94950210
:1005D000B701002E01C0660F0A94EAF76D238091DF
:1005E0001A060E94950261E080911C060E94950205
:1005F00080911B060E946C02892B09F0C16001509A
:10060000110900F7D0CFCF93DF9390E0FC01EB53BB
:10061000FE4F24918F549E4FFC0184918823C9F092
:1006200090E0880F991FFC01E258FE4FA591B4910C
:10063000FC01E955FE4FC591D49161110DC09FB7E2
:10064000F8948C91209582238C9388812823288389
:100650009FBFDF91CF910895623051F49FB7F89416
:100660003C91822F809583238C93E8812E2BEFCFB2
:100670008FB7F894EC912E2B2C938FBFEACF1F935A
:10068000CF93DF93182FEB0161E00E9403032097C3
:1006900039F460E0812FDF91CF911F910C94950286
:1006A000CF3FD10511F461E0F5CFE12FF0E0E6593D
:1006B000FE4FE491E33031F140F4E130B1F0E2304B
:1006C000E1F0C038D1057CF7E4CFE73029F1E8301C
:1006D00059F1E430B1F7809180008062809380000E
:1006E000D0938B00C0938A0004C084B5806884BD19
:1006F000C7BDDF91CF911F91089584B5806284BDFD
:10070000C8BDF7CF80918000806880938000D0932F
:100710008900C0938800EDCF8091B00080688093FD
:10072000B000C093B300E5CF8091B00080628093A9
:10073000B000C093B400DDCF3FB7F89480914D0373
:1007400090914E03A0914F03B091500326B5A89B02
:1007500005C02F3F19F00196A11DB11D3FBFBA2F53
:10076000A92F982F8827BC01CD01620F711D811D13
:10077000911D42E0660F771F881F991F4A95D1F798
:1007800008958F929F92AF92BF92CF92DF92EF9295
:10079000FF924B015C010E949C036B017C010E9453
:1007A0009C036C197D098E099F09683E7340810581
:1007B0009105A8F321E0821A9108A108B10888EEFA
:1007C000C80E83E0D81EE11CF11C81149104A10421
:1007D000B10429F7FF90EF90DF90CF90BF90AF90DA
:1007E0009F908F9008952FB7F8946091490370916E
:1007F0004A0380914B0390914C032FBF08950F93B0
:100800001F938091820584FD18C0809183050E940A
:100810006C023091820533FB222720F935FB332708
:1008200030F9232731E0892B09F030E0232780912C
:10083000810520FB80F9809381058091810580FFEF
:10084000C3C082FDC1C081FD92C0826080938105DA
:100850000E94F30360938C0570938D0580938E0541
:1008600090938F058091810580FD1BC082FF54C04D
:10087000837F8064809381050E94F30360938C05DD
:1008800070938D0580938E0590938F0580918205DE
:100890008E7F8093820581FF04C08D7F846080936A
:1008A00082058091810582FF37C080FF35C00E949C
:1008B000F30300918C0510918D0520918E053091E8
:1008C0008F05AB01BC01401B510B620B730B809178
:1008D000860590918705B0E0A0E0481759076A07A0
:1008E0007B07D0F08091810583FD16C010928A05A8
:1008F00088608062809381058091820581608D7F10
:10090000809382050E94F30360938C0570938D059C
:1009100080938E0590938F050E94F30300918C05C0
:1009200010918D0520918E0530918F05AB01BC0192
:10093000401B510B620B730B8091860590918705CC
:10094000B0E0A0E0481759076A077B0768F080917C
:100950008A05882349F080938B0510928A0580913F
:1009600081058061809381051F910F9108950E94F8
:10097000F30300918C0510918D0520918E05309127
:100980008F05AB01BC01401B510B620B730B8091B7
:10099000840590918505B0E0A0E0481759076A07E3
:1009A0007B0708F45FCF8091810590918A059F5F56
:1009B00090938A0584608068809381058091820588
:1009C0008260809382054ECF809181058D7F8093D8
:1009D000810548CFCF92DF92EF92FF920F931F9342
:1009E000CF93DF93FC01118511110BC010E0812F13
:1009F000DF91CF911F910F91FF90EF90DF90CF90FB
:100A00000895EC010E94F303C880D980EA80FB803E
:100A10006C197D098E099F09CC80DD80EE80FF80F6
:100A20006C157D058E059F0508F308850023F9F2F6
:100A30000E94F303688379838A839B83102FD7CF27
:100A40002091D6043091D7042817390771F490917A
:100A5000D4048091D504981741F0E091D404F0E0DB
:100A6000E85FFC4F808190E008958FEF9FEF08953D
:100A7000EF92FF920F931F93CF93DF93DC015C966D
:100A8000ED90FC905D97E114F10479F481E090E041
:100A900013969C938E93129790E080E0DF91CF9114
:100AA0001F910F91FF90EF9008955196ED91FC9159
:100AB000529750968C915097982F90950FB75E96BD
:100AC0002C915E97122F127021FD6095F894208171
:100AD000112319F1282B2083E7012197F1F728E052
:100AE000462F50E0308160FF1AC0382B3083E70179
:100AF0002197F1F7BA0175956795215089F7112370
:100B000081F08081892380830FBF5C968D919C91B9
:100B10000197F1F781E090E0C1CF2923DCCF3923A1
:100B2000E5CF9081892BEFCF2091D6043091D70467
:100B30002817390771F48091D5042091D40490E0EE
:100B4000805C9F4F821B910960E470E00E949728AF
:100B5000089590E080E008952091D6043091D70464
:100B600028173907B9F49091D4048091D5049817C7
:100B700089F0E091D404F0E0E85FFC4F808120919F
:100B8000D40430E02F5F3F4F2F7333272093D404DA
:100B900090E008958FEF9FEF0895FC0189EC91E0BC
:100BA000918380838091D6049091D704E817F90748
:100BB00059F4A389B4899C918589809589238C9364
:100BC0001092D7041092D604089508950895FC0158
:100BD000908190539A3008F090E0818180532AE010
:100BE000929F800D11240895DC0150E0E9EDF1E0C1
:100BF00081E0861730F49491490F511D8F5F319633
:100C0000F8CF633038F0CD0183709927892B11F428
:100C10004F5F5F4F9D012D5F3F4F3695279536956E
:100C200027956DE671E0A69FC001A79F900DB69F26
:100C3000900D11240197820F931F840F951F089523
:100C400008952091E502260F3327331F2132310505
:100C5000ECF42091CE04FC0190E080E0243069F0B7
:100C600082E00895A091E5022191AC014B535D4FC4
:100C7000A40FB52FB11D2C930196861798F3809180
:100C8000E502680F6093E50280E0089581E0089531
:100C90001092CE0481E08093AD041092A80461E02C
:100CA00082E10E94950261E083E10E949502E9EBF6
:100CB000F0E080818E7F808380818D7F808388E4D7
:100CC0008093B80085E48093BC000895109283045B
:100CD0001092820410928504109284040E944806A7
:100CE0008BE291E090938104809380048CE291E008
:100CF00090937F0480937E040895CF93DF9391E0D7
:100D00009093C4028823B9F0C091B800D091BA0082
:100D10008091BC008A7B8093BC0060E082E10E94ED
:100D2000950260E083E10E9495020E944806D093FC
:100D3000BA00C093B800DF91CF910895CF92DF92AF
:100D4000EF92FF920F931F93CF93DF93D82FC62F6D
:100D5000613208F098C00E949C036B017C01809175
:100D6000CE0481116BC081E08093CE048093AD04EA
:100D70009FEF9093AC041092AB049C0F9093AA0445
:100D80008093A9048091A904DD0FD82BD093A904E6
:100D90008091A804813009F078C01092A8040E94C4
:100DA0009C036B017C018091A9048093BB0080911E
:100DB000D0049091D104A091D204B091D304892B96
:100DC0008A2B8B2BA1F00E949C030091D0041091E0
:100DD000D1042091D2043091D3046C197D098E097D
:100DE0009F09061717072807390708F448C080919C
:100DF000BC0083FDD8CF85EC8093BC000E949C038F
:100E00006B017C018091CE04813009F440C0809157
:100E1000AB048C1710F4C091AB04E8E8F4E0AEEA40
:100E2000B4E080E08C1355C08C2FDF91CF911F91DF
:100E30000F91FF90EF90DF90CF9008958091D004B4
:100E40009091D104A091D204B091D304892B8A2B24
:100E50008B2B09F484CF0E949C030091D004109145
:100E6000D1042091D2043091D3046C197D098E09EC
:100E70009F09061717072807390708F070CF8091D8
:100E8000CF040E947D06C0E0CFCF85EEB5CF809124
:100E9000D0049091D104A091D204B091D304892BB5
:100EA0008A2B8B2B09F4AECF0E949C030091D004B7
:100EB0001091D1042091D2043091D3046C197D0992
:100EC0008E099F09061717072807390708F09ACFD8
:100ED000D6CF91919D938F5FA5CFE09183048091B0
:100EE0008204E81730F4F0E0E255FB4F808190E097
:100EF00008958FEF9FEF089590918304809182046D
:100F00002FEF3FEF981748F4E92FF0E0E255FB4F41
:100F1000208130E09F5F90938304C9010895809100
:100F2000820490918304891B990B0895CF92DF92DC
:100F3000EF92FF920F931F93CF93DF937C01CB012E
:100F40008A0120918704222389F0EB016B01C40EF2
:100F5000D51ECC15DD0569F06991D701ED91FC91A5
:100F60000190F081E02DC7010995F3CF642F0E9415
:100F70002106C801DF91CF911F910F91FF90EF9053
:100F8000DF90CF900895CF93DF931F92CDB7DEB758
:100F90006983209187042223F9F020918404203270
:100FA00058F021E030E0FC013383228390E080E0C0
:100FB0000F90DF91CF91089580918504E82FF0E0A4
:100FC000EC55FD4F998190838F5F809385048093CA
:100FD000840481E090E0ECCF61E0CE0101960E94B4
:100FE0002106F7CFCF92DF92EF92FF920F931F93DC
:100FF000CF93DF93D091840481E0D13208F09CC07C
:10100000C09186040E949C036B017C018091CE04F8
:1010100081116CC082E08093CE0481E08093AD04A6
:101020008FEF8093AC041092AB04D093AA04A4EA8F
:10103000B2E0E8E8F4E080E0D8138DC01092A90493
:101040008091A904CC0FC82BC093A9048091A80457
:10105000813009F084C01092A8040E949C036B01A7
:101060007C018091A9048093BB008091D004909171
:10107000D104A091D204B091D304892B8A2B8B2B5D
:10108000A1F00E949C030091D0041091D104209102
:10109000D2043091D3046C197D098E099F0906177B
:1010A00017072807390708F442C08091BC0083FD68
:1010B000D8CF85EC8093BC000E949C036B017C011F
:1010C0008091CE04823009F44CC08091AC048F3FF3
:1010D00009F469C08091AC04803209F466C0809143
:1010E000AC04803309F463C084E026C08091D0044E
:1010F0009091D104A091D204B091D304892B8A2B72
:101100008B2B09F483CF0E949C030091D004109193
:10111000D1042091D2043091D3046C197D098E0939
:101120009F09061717072807390708F06FCF809126
:10113000CF040E947D0685E01092850410928404FD
:1011400010928704DF91CF911F910F91FF90EF9044
:10115000DF90CF9008959D9191938F5F6DCF85EE35
:10116000A9CF8091D0049091D104A091D204B091E4
:10117000D304892B8A2B8B2B09F4A2CF0E949C03CA
:101180000091D0041091D1042091D2043091D30465
:101190006C197D098E099F0906171707280739075B
:1011A00008F08ECFC4CF80E0C7CF82E0C5CF83E008
:1011B000C3CFCF93DF93D82FC62F809119068F3FCF
:1011C00021F5809110060E94210180910E069091D8
:1011D0000F06DC01ED91FC910190F081E02D6D2F67
:1011E000099580910E0690910F06DC01ED91FC911E
:1011F0000190F081E02D6C2F099580910E06909161
:101200000F06DF91CF910C94F20780911C068F3F5F
:1012100021F482E591E00E941E0160E080911906B0
:101220000E9495028D2F8F770E94C3028C2F0E94FF
:10123000C30261E080911906DF91CF910C94950271
:101240000F931F93CF93DF93CFE3D6E08295880F60
:10125000880F807C67704770440F440F440F862BC3
:10126000842B8883E0E4F6E0922F9295990F907E8C
:1012700080818F71892B80830EE316E0F8018081D5
:10128000807C8083622F82EF0E94D908F8018081E0
:10129000682F6770F0E26F9FB0011124282F269508
:1012A00026952695277098E0299F90011124622B9E
:1012B00087FB882780F9682B85EF0E94D9088881F1
:1012C000682F6770E0E26E9FB0011124282F2695E9
:1012D000269526952770F8E02F9F90011124622B08
:1012E0008295869586958370682B84EFDF91CF91E8
:1012F0001F910F910C94D9080F931F93CF938C01DA
:10130000C62FFC0184810E942101F80163856C2BAA
:1013100085E795E00E94C30785E795E0CF911F918F
:101320000F910C94F20790E080E008956FEF70E069
:1013300089E00E943F036FEF70E086E00E943F0368
:101340006FEF70E085E00C943F03862F642F0E94BE
:101350009E06109283048093820408958F929F9238
:10136000AF92BF92CF92DF92EF92FF92F82E8091D0
:1013700019068F3F09F069C0809110060E94210173
:1013800080910E0690910F06DC01ED91FC91019089
:10139000F081E02D6F2D099580910E0690910F063A
:1013A0000E94F20743E06091100680910E06909132
:1013B0000F060E94A50980910E0690910F06DC0190
:1013C000ED91FC910284F385E02D09954C01990F74
:1013D000AA08BB08BA2CA92C982C882480910E0648
:1013E00090910F06DC01ED91FC910284F385E02DD4
:1013F0000995092E000CAA0BBB0B882A992AAA2A48
:10140000BB2ABA2CA92C982C882480910E06909186
:101410000F06DC01ED91FC910284F385E02D099526
:10142000092E000CAA0BBB0B6C017D01C828D92822
:10143000EA28FB28C701B601FF90EF90DF90CF901C
:10144000BF90AF909F908F90089580911C068F3F22
:1014500021F482E591E00E941E0160E0809119066E
:101460000E9495028F2D0E94C30280E00E94C30259
:1014700090E0B0E0A0E0CC24D82EE92EFA2E80E057
:101480000E94C302C82AFE2CED2CDC2CCC2480E068
:101490000E94C302C82A61E0809119060E94950249
:1014A000C9CF8F929F92AF92BF92CF92DF92EF926D
:1014B000FF920F931F938AEF0E94AE096115710589
:1014C00020E88207910509F47DC000911D06109166
:1014D0001E0630E020E0C72ED82EE92EFF24E7FCC0
:1014E000FA94C01AD10AE20AF30A57E09595879553
:1014F000779567955A95D1F7000F111F221F331F5B
:101500004B015C01801A910AA20AB30AA501940159
:10151000A0911F06B09120060E9436264B015C0167
:10152000FBE0B594A79497948794FA95D1F7A70117
:101530009601C701B6010E9467289B01AC01ACE08F
:101540005595479537952795AA95D1F7A0912106EE
:10155000B09122060E9436269B01AC01BEE0559553
:10156000479537952795BA95D1F7280D391D4A1D0E
:101570005B1D209315063093160640931706509373
:101580001806A5E0B0E00E942B2660587F4F8F4FD1
:101590009F4F672F782F892F992787FD9A950E9453
:1015A000132520E030E048EC52E40E9413271F91FD
:1015B0000F91FF90EF90DF90CF90BF90AF909F90F2
:1015C0008F90089560E070E080EC9FE7F0CF2F925D
:1015D0003F924F925F926F927F928F929F92AF92C3
:1015E000BF92CF92DF92EF92FF920F931F93CF9310
:1015F000DF93CDB7DEB768970FB6F894DEBF0FBEA6
:10160000CDBF0E94510A87EF0E94AE096B877C878D
:101610008D879E87611571058048910509F4BDC1CC
:101620008091150690911606A0911706B0911806A4
:101630006C017D01FF0CCC08DC2C76019C01AD0116
:101640006C2D7C2D8C2D9C2D345F414051096109FE
:1016500071098109910929833A834B835C836D83E6
:101660007E83888F9F8B59016A017B018C010E94C8
:10167000B1282F83388749875A876B8B7C8B8D8B5A
:101680009E8B3091260620912506932F990F990B5A
:10169000492F592F692F792F892F0E94B1280CE0EB
:1016A0000E94A9291901942E852E762E672E582E78
:1016B000492E3091280620912706932F990F990BD8
:1016C000AF80B884C984DA84EB88FC880D891E89D0
:1016D000492F592F692F792F892F0E94B12808E0AF
:1016E0000E94C2295101C92CD82CE72CF62C052DBB
:1016F000142D0E94DF2970588F4F9F4F2090230692
:10170000309024065101C12CD12CE12CF12C00E0A9
:1017100010E00E94B12801E20E94C229322E232E3D
:101720004F87588B698B472E582E9A8BA0E00E94CA
:10173000F12909F437C130912E0620912D06932FFF
:10174000990F990BAF80B884C984DA84EB88FC8840
:101750000D891E89492F592F692F792F892F0E94B2
:10176000B1282F8338873A014B0189879A873091B6
:101770002C0620912B06932F990F990BA980BA80E4
:10178000CB80DC80ED80FE80088D1F89492F592F8A
:10179000692F792F892F0E94B12801E10E94A92980
:1017A000AF80B8846301740109851A850E94DF291E
:1017B00059016A017B018983192F4B855C856D85F1
:1017C0007E8584E075956795579547958A95D1F7FD
:1017D00080E090E0A0E1B0E0841B950BA60BB70B76
:1017E0003C014D01990C6608762C43019C01AD012A
:1017F000662D762D862D962D0FE10E94A92949018F
:101800004B835A83B62FA72FF82FE92F30912A0642
:1018100020912906932F990F990B492F592F692F42
:10182000792F892F03E20E94A92909810E94DF29CB
:1018300059016A017B018C0194014B815A816B2F04
:101840007A2F8F2F9E2F0E94E829E5E3AE2EFCE031
:10185000BF2EC12CD12CE12CF12C00E010E00E9415
:10186000B128A32CB22CCF84D888E988F42C052D7C
:101870001A890E940B2928873F8349835A836B83E7
:101880007C838D839E830DE00E94C229922E832E3D
:10189000742E652E562E472E382E292E3091340662
:1018A00020913306932F990F990BA92CB82CC72C94
:1018B000D62CE52CF42C032D122D492F592F692FEE
:1018C000792F892F0E94B1280E94B12809E10E9436
:1018D000C229A884BF80C980DA80EB80FC800D819A
:1018E0001E810E94DF2919012A013B014C01309120
:1018F000320620913106932F990F990B492F592FBA
:10190000692F792F892F0E94B12803E10E94C229F3
:1019100059016A017B018C019101A201B301C4014B
:101920000E94DF2908E00E94C22959016A017B0157
:10193000E82F192F3091300620912F06932F990F01
:10194000990B492F592F692F792F892F04E00E9475
:10195000A9290E2F0E94DF290E94BB2720E030E03A
:1019600040E85BE30E944E2568960FB6F894DEBF10
:101970000FBECDBFDF91CF911F910F91FF90EF90E0
:10198000DF90CF90BF90AF909F908F907F906F909F
:101990005F904F903F902F90089560E070E080EC52
:1019A0009FE7E2CF60E070E0CB01DECFCF93DF9323
:1019B000C82F809119068F3F09F03FC08091100613
:1019C0000E94210180910E0690910F06DC01ED919D
:1019D000FC910190F081E02D6C2F099580910E060D
:1019E00090910F060E94F20742E0609110068091EC
:1019F0000E0690910F060E94A50980910E06909107
:101A00000F06DC01ED91FC910284F385E02D099530
:101A1000C82F80910E0690910F06DC01ED91FC918C
:101A20000284F385E02D099520E03C2FE901C82BC5
:101A3000D92BCE01DF91CF91089580911C068F3F65
:101A400021F482E591E00E941E0160E08091190678
:101A50000E9495028C2F0E94C30280E00E94C30264
:101A6000C82F80E00E94C302DC2FC82F61E0809164
:101A700019060E949502DDCF0E94D60C982789276F
:101A800098270895CF93C82F809119068F3F71F53D
:101A9000809110060E94210180910E0690910F0600
:101AA000DC01ED91FC910190F081E02D6C2F099506
:101AB00080910E0690910F060E94F20741E060911E
:101AC000100680910E0690910F060E94A509809144
:101AD0000E0690910F06DC01ED91FC910284F385D6
:101AE000E02D0995C82F8C2FCF91089580911C0669
:101AF0008F3F21F482E591E00E941E0160E0809119
:101B000019060E9495028C2F0E94C30280E00E9459
:101B1000C302C82F61E0809119060E949502E3CFAD
:101B200080913F06982F907C903421F5682F677044
:101B300090E2699FB0011124282F269526952695BD
:101B4000277098E0299F90011124622B8295869539
:101B500086958370682B84EF0E94D90883EF0E94DA
:101B6000420D83FF07C061E070E080E090E00E94DA
:101B7000C103F4CF089588E60E9421016FE085E754
:101B800095E00E94C30785E795E00E94F20741E0D7
:101B900068E685E795E00E94A50985E795E00E9443
:101BA0007C070895CF92DF92FF920F931F93CF93FC
:101BB000DF936C0188E60E94210160E085E795E0F3
:101BC0000E94C30785E795E00E94F20767E088E678
:101BD0000E949E06109283048093820485E795E01C
:101BE0000E947C078F77282F30E094E03595279569
:101BF0009A95E1F7922F990F990FC22FC91BCC0F1D
:101C0000C80F85E795E00E947C079C0144E035956C
:101C100027954A95E1F72F703327922F990F990F47
:101C2000D22FD91BDD0FD80F85E795E00E947C07E6
:101C30009C0154E0359527955A95E1F72F7033278D
:101C4000922F990F990F122F191B110F180F85E75B
:101C500095E00E947C0785E795E00E947C079C0147
:101C600064E0359527956A95E1F72F703327922F19
:101C7000990F990F022F091B000F080F85E795E0B8
:101C80000E947C079C0174E0359527957A95E1F7D1
:101C90002F703327922F990F990FF22EF91AFF0CFC
:101CA000F80E85E795E00E947C079C01E4E03595FD
:101CB0002795EA95E1F72F703327922F990F990F07
:101CC000291B220F820FF6018083F1820283138386
:101CD000D483C583C601DF91CF911F910F91FF90EF
:101CE000DF90CF9008950F931F93CF938C01C62F51
:101CF0000E947C096C2F6460C8010E947C096C2FD3
:101D00006B7FC8010E947C0983EC90E00197F1F79A
:101D1000CF911F910F9108950F931F93CF93DF934E
:101D20008C01D62FC42F607F642B0E94730E80E13C
:101D3000D89FB00111246C2BC801DF91CF911F9166
:101D40000F910C94730ECF93DF93CDB7DEB7289726
:101D50000FB6F894DEBF0FBECDBF98E0E7E8F1E024
:101D6000DE01119601900D929A95E1F790914F0640
:101D7000961710F46FEF690F262F30E0220F331FF4
:101D800041E050E04C0F5D1F240F351FF9016081C9
:101D9000680F606840E087E496E028960FB6F894F4
:101DA000DEBF0FBECDBFDF91CF910C948C0E41E012
:101DB0000E948C0E81E090E00895CF938B3008F064
:101DC0001FC1C62FE82FF0E0E751F14F60E00C94FF
:101DD000AB28F40E110F2A0F4C0F6D0F770F860FE3
:101DE0009E0FB70FC60FDE0F8C2F0E94A30E60E070
:101DF00087E496E00E94D70E61E087E496E00E94B7
:101E0000D70E62E087E496E00E94D70E61E08C2F47
:101E10000E94A30E63E087E496E00E94D70E64E080
:101E200057C081E08C0F0E94A30E61E087E496E02A
:101E30000E94D70E62E087E496E00E94D70E61E030
:101E400082E08C0F0E94A30E65E087E496E0CF91BC
:101E50000C94D70E8C2F0E94A30E66E087E496E0C8
:101E60000E94D70E66E087E496E00E94D70E62E0FB
:101E700087E496E00E94D70E61E08C2F0E94A30EAB
:101E800063E087E496E00E94D70E67E087E496E07F
:101E90000E94D70E67E0D9CF8C2F0E94A30E66E078
:101EA00087E496E00E94D70E66E087E496E00E9401
:101EB000D70E62E087E496E00E94D70E61E08C2F97
:101EC0000E94A30E67E087E496E00E94D70E67E0C9
:101ED00087E496E00E94D70EB7CF8C2F0E94A30E06
:101EE00063E087E496E00E94D70E64E09FCF8C2FDA
:101EF0000E94A30E60E087E496E00E94D70E66E0A1
:101F000087E496E00E94D70E66E0D4CF8C2F0E9423
:101F1000A30E60E087E496E00E94D70E66E087E4B7
:101F200096E00E94D70E66E087E496E00E94D70E06
:101F300061E08C2F0E94A30E63E0C5CF8C2F0E941E
:101F4000A30E61E087E496E00E94D70E61E087E48B
:101F500096E00E94D70E62E087E496E00E94D70EDA
:101F600061E081E08C0F0E94A30E60E06ECF8C2FA9
:101F70000E94A30E60E087E496E00E94D70E66E020
:101F800087E496E00E94D70E62E0CECF8C2F0E94AD
:101F9000A30E60E087E496E00E94D70E66E087E437
:101FA00096E00E94D70E62E087E496E00E94D70E8A
:101FB00061E081E08C0F0E94A30E31CF8C2F0E9434
:101FC000A30E60E287E496E00E94D70E60E287E409
:101FD00096E00E94D70E60E287E496E00E94D70E5A
:101FE00061E08C2F0E94A30E60E287E496E00E94DD
:101FF000D70E60E287E496E00E94D70E60E225CF1C
:10200000CF9108950F931F93CF93DF938B0198E0A7
:10201000899FB0011124606440E087E496E00E944B
:102020008C0EE801085F1F4F699187E496E00E94DB
:10203000D70EC017D107C1F7DF91CF911F910F9134
:10204000089568E371E080E00E94021060E371E0AF
:1020500081E00E94021068E271E082E00E940210BA
:1020600060E271E083E00E94021068E171E084E0C8
:102070000E94021060E171E085E00E94021068E0B9
:1020800071E086E00E94021060E071E087E00C944D
:10209000021040E061E087E496E00E948C0E8BE342
:1020A0009FE10197F1F70895FB0101900020E9F706
:1020B0003197AF01461B570BDC01ED91FC9102807B
:1020C000F381E02D09948F929F92AF92BF920F936C
:1020D0001F93CF93DF93CDB7DEB7A1970FB6F894D8
:1020E000DEBF0FBECDBF19A2423008F44AE08E0118
:1020F0000F5D1F4F842E912CB12CA12CA5019401B2
:102100000E947526E62FB901CA01EA3004F5E05DA8
:10211000D801EE938D01232B242B252B79F790E00A
:1021200080E0109729F0BD0187E496E00E945410EA
:10213000A1960FB6F894DEBF0FBECDBFDF91CF9151
:102140001F910F91BF90AF909F908F900895E95C81
:10215000DFCFCF92DF92EF92FF926C01990FEE08E2
:10216000FF08F7FE16C041E06DE287E496E00E94AA
:102170008C0E66277727CB016C197D098E099F0984
:102180004AE00E9463100196FF90EF90DF90CF909D
:1021900008954AE0C701B601FF90EF90DF90CF901D
:1021A0000C9463102F923F924F925F926F927F92A6
:1021B0008F929F92AF92BF92CF92DF92EF92FF9257
:1021C0000F931F93CF93DF937C01EB018A01590199
:1021D0003A019A01225E3F4FFA01C12C8DE7D82EB9
:1021E000812C93E8992E81919191881699060CF48F
:1021F0004C018C159D050CF46C01E217F30799F75F
:1022000060E080E10E94A30EC4010E94A91061E079
:1022100080E10E94A30EC5010E945A0162E080E1A4
:102220000E94A30EF801848D958D0E94A91063E091
:1022300080E10E94A30EC6010E94A91010E0CE19F1
:10224000DF094E01DD0FAA08BB080AE0C3E0F30175
:10225000619171913F0180E0E616F7062CF56E1949
:102260007F09072E000C880B990B0E9413251B0178
:102270002C01C501B4010E9413259B01AC01C201D0
:10228000B1010E94132720E030E040E850E40E94B2
:102290004E2520E030E040E251E40E944E250E94AD
:1022A000FF270E948C27862F602F0E947728D82E28
:1022B000692F70E090E080E00E94132520E030E07C
:1022C00040E051E40E944E2520E030E040E251E43D
:1022D0000E9413270E948C27C62ED394D0E06C2F27
:1022E0006D1BDF5F812FDD1601F10E94A30E60E000
:1022F00087E496E00E94D70ED43089F71F5F1F3025
:1023000009F0A5CFDF91CF911F910F91FF90EF9032
:10231000DF90CF90BF90AF909F908F907F906F9005
:102320005F904F903F902F9008950E94A30E6C2DC8
:10233000C11001C060E187E496E00E94D70EDC2E58
:10234000DD1AD430D8F66D2D812F0E94A30E60E1E6
:1023500087E496E00E94D70EDF5FDA94F2CF8F9287
:102360009F92AF92BF92CF92DF92EF92FF920F9324
:102370001F93CF93DF93CDB7DEB76F970FB6F89467
:10238000DEBF0FBECDBF6C017B0180900C0690902C
:102390000D0600910A0610910B06B02E1C821B82BE
:1023A00088EE93E0A0E0B0E08D839E83AF83B88792
:1023B00089EC91E09A838983188E1F8A1A8E198E70
:1023C0001C8E1B8E1E8E1D8E6F8D6E7F6D7F6F8F90
:1023D0006695617081E06827882D0E94950261E012
:1023E000882D0E940303C4019927FC01EB53FE4F83
:1023F000E491E98BFC01EF54FE4FE491F0E0EE0F25
:10240000FF1FE955FE4F859194919B8B8A8B60E06D
:10241000802F0E9403038F8D81FD04C061E0802F17
:102420000E9495020D871127F801EB53FE4FE491AE
:10243000EE87F801EF54FE4FE491F0E0EE0FFF1F3E
:10244000E356FE4F85919491988B8F871C8E1B8E3F
:102450001A8E198E188E1F8A8DE991E09E8F8D8FAE
:1024600085E18B1508F43FC08DEB90E0988F8F8B42
:102470008BE991E09A8F898F8CE291E09C8F8B8F12
:1024800090916800E7E084E0EB1550F421E0FDE076
:10249000FB1508F020E081E001C0880F2A95EAF7DB
:1024A000892B809368009D852DE630E0983050F0B0
:1024B0002BE630E09E3030F02CE630E0963110F024
:1024C00030E020E03D8B2C8B292F30E0983008F055
:1024D00079C081E001C0880F9A95EAF78E8B8D8DC7
:1024E0009E8D0197F1F78B8D9C8D8E010F5F1F4F95
:1024F000892B09F1E091D604F091D7040E171F073C
:10250000D1F0309739F0A389B4899C918589809561
:1025100089238C938F8D8E7F8F8F1092D50410928C
:10252000D4041093D7040093D604EC89FD898081EC
:102530009E89892B808348E050E0B601C8010E9443
:102540002D01F601319688E0C80ED11C60E0819122
:10255000680FEC15FD05D9F76195C8010E94380593
:10256000E114F104C9F085E6C82ED12CC8010E94FF
:10257000940518161906D4F1E1E0CE1AD10879F5C0
:102580006FE072E088ED94E00E94541061E372E025
:1025900088ED94E00E945410C8010E94CD056F960A
:1025A0000FB6F894DEBF0FBECDBFDF91CF911F9164
:1025B0000F91FF90EF90DF90CF90BF90AF909F90E2
:1025C0008F9008959E3040F42850310981E001C079
:1025D000880F2A95EAF782CF2E503109F7CF6AE0AB
:1025E00070E080E090E00E94C103C0CF6701F9E095
:1025F000CF0ED11C0E94F30369877A878B879C8753
:10260000C8010E94AC0597FF14C00E94F30389849F
:102610009A84AB84BC84681979098A099B098D80E6
:102620009E80AF80B884681579058A059B0540F3C4
:10263000B3CFF70181937F01CE16DF06D9F6ACCF79
:102640004F925F926F927F928F929F92AF92BF92C2
:10265000CF92DF92EF92FF92CF93DF93CDB7DEB7A9
:1026600029970FB6F894DEBF0FBECDBF0E94900D24
:102670000E94510A6093FF03709300048093010449
:10268000909302040E94510A8DEF0E94D60CB0E094
:10269000A0E0811520E89207A105B10509F425C144
:1026A0008090150690901606A0901706B090180618
:1026B0002CE2921A21E0A20AB1086C017D013EE0F1
:1026C000CC0CDD1CEE1CFF1C3A95D1F7809139062D
:1026D00090913A06092E000CAA0BBB0B44E1880F1F
:1026E000991FAA1FBB1F4A95D1F7C81AD90AEA0A2F
:1026F000FB0AA0913B06B0913C06A50194010E9403
:102700003626C61AD70AE80AF90A80E4D80EE11C70
:10271000F11C6FE0F594E794D794C7946A95D1F7CC
:10272000A0913806B0E00E942B262B013C017BE0F3
:1027300075946794579447947A95D1F720E8520E90
:10274000611C711CA0913D060A2E000CBB0B94016C
:102750000E943626EAE09595879577956795EA95E4
:10276000D1F7A30192010E9467289B01AC01FAE016
:102770005595479537952795FA95D1F7405E5F4F68
:10278000A0913606B09137060E943626705E8F4FB4
:102790009F4FAEE09595879577956795AA95D1F768
:1027A000A70196010E9467286B017C01BFE0959507
:1027B000879577956795BA95D1F79B01AC010E94F3
:1027C00067289B01AC0187E055954795379527957C
:1027D0008A95D1F7A0913506B0E00E942B2624E01F
:1027E00095958795779567952A95D1F7C61AD70A53
:1027F000E80AF90AF7FE03C0C12CD12C7601C70103
:10280000B60161307105810529E1920724F060E08D
:1028100070E080E099E12CE0959587957795679534
:102820002A95D1F70E94132520E030E040E85AE3D2
:102830000E944E250E948C276093FE030E94E70AA7
:1028400023EC37EC45EF5BE30E944E250E94852781
:102850007093A3026093A202CE010A96FE01319604
:102860001192E817F907E1F7BE016F5F7F4F82EE23
:1028700095E00E94AF1189818F3FE1F58A8186380A
:10288000C9F5FE01329621E030E02C0F3D1F285F94
:102890003F4F80E09191890FE217F307D9F78195B7
:1028A0009985981327C08B81282F30E0322F22275B
:1028B0008C81820F932F911D9093FD038093FC03D5
:1028C00029960FB6F894DEBF0FBECDBFDF91CF9132
:1028D000FF90EF90DF90CF90BF90AF909F908F9040
:1028E0007F906F905F904F90089560E070E080EC73
:1028F0009FE7A0CF8FEF9FEFDFCF1F93CF93DF93A3
:10290000C82F162F60E080E00E94A30E64E372E0FF
:1029100087E496E00E94541061E080E00E94A30EDC
:1029200064E372E087E496E00E94541060E08AE07D
:10293000CA3028F08C2F6AE00E94772860E00E945D
:10294000DD0EDAE08C2F6D2F0E947728892F64E04E
:102950000E94DD0E812F6D2F0E947728C92F68E01D
:102960000E94DD0E6CE08C2FDF91CF911F910C94B3
:10297000DD0E60E08FE00E94A30E809143068A3056
:1029800020F490E080E00E94A9106091430670E07E
:1029900090E080E04AE00E9463106FE272E087E41A
:1029A00096E00E945410809142068A3020F490E014
:1029B00080E00E94A9106091420670E090E080E003
:1029C0004AE00E94631061E080E10E94A30E8091C2
:1029D0004106409143066091420690E00E94F40552
:1029E000069667E070E00E948328FC01EE0FFF1F4F
:1029F000E954FE4F608171816115710521F087E412
:102A000096E00C94541008950F931F93CF93DF9387
:102A1000EC0188819981009759F02A813B81261722
:102A2000370730F081E0DF91CF911F910F9108952A
:102A30008B016F5F7F4F0E94222B009759F0998383
:102A400088831B830A832C813D81232B59F7FC014A
:102A50001082E8CF80E0E7CFEF92FF920F931F93B1
:102A6000CF93DF936115710541F480E0DF91CF9141
:102A70001F910F91FF90EF90089541155105B1F00E
:102A80007B01EC010C811D81040F151FB8010E9410
:102A90000415882351F3288139818C819D81B701E8
:102AA000820F931F0E94E82B1D830C8381E0DECFF1
:102AB000CF93DF93EC0188819981009711F00E94F8
:102AC000992A198218821D821C821B821A82DF9128
:102AD000CF910895CF93DF93EC01FB01019000208B
:102AE000E9F73197AF01461B570B0E942C15811156
:102AF00003C0CE010E945815CE01DF91CF910895F9
:102B0000EF92FF920F931F93CF93DF93EC017B0122
:102B10008A01BA010E94041581110BC0CE010E94E6
:102B20005815CE01DF91CF911F910F91FF90EF903B
:102B300008951D830C83B701888199810E94E82B39
:102B4000F0CFFB0101900020E9F73197AF01461B60
:102B5000570B0C9480150F931F93CF93DF93CDB732
:102B6000DEB762970FB6F894DEBF0FBECDBF8C0103
:102B7000CB01F80111821082138212821582148215
:102B80004AE0BE016F5F7F4F0E94A522BE016F5FCA
:102B90007F4FC8010E94A11562960FB6F894DEBF60
:102BA0000FBECDBFDF91CF911F910F910895FB0113
:102BB000DC0111961C921E9213961C921E92129783
:102BC00015961C921E9214978617970749F06081FC
:102BD00071816115710521F0448155810C94801536
:102BE0000895FC01118210821382128215821482D0
:102BF000FB0101900020E9F73197AF01461B570B0D
:102C00000C948015FC0180819181009711F00C9447
:102C1000992A0895CF93DF9300D000D000D0CDB78C
:102C2000DEB70E944910E0917D04E150E83010F5D4
:102C3000F0E0E35EF94E0C94AB28251643164F16D0
:102C40005F166B167B168716971664E472E0CE014A
:102C500001960E94F1159E012F5F3F4F4DE554E014
:102C600063E270E08FE090E00E94D210CE01019606
:102C70000E94021626960FB6F894DEBF0FBECDBF97
:102C8000DF91CF91089569E472E0CE0101960E9430
:102C9000F1159E012F5F3F4F4CED53E0E1CF6FE404
:102CA00072E0CE0101960E94F1159E012F5F3F4F09
:102CB0004FE354E064E670E090E080E0D5CF64E557
:102CC00072E0CE0101960E94F1159E012F5F3F4FE9
:102CD0004EEB53E0EFCF6AE572E0CE0101960E9421
:102CE000F1159E012F5F3F4F41E254E064E670E032
:102CF0008CE99FEFB9CF6FE572E0CE0101960E949B
:102D0000F1159E012F5F3F4F40EA53E0EFCF65E69C
:102D100072E0CE0101960E94F1159E012F5F3F4F98
:102D200043E054E068EB7BE084EF91E09DCF6AE6FE
:102D300072E0CE0101960E94F1159E012F5F3F4F78
:102D400042E853E0EFCF0C94992A85ED8093BC00C4
:102D50008091D0049091D104A091D204B091D30479
:102D60000796A11DB11D23E0B695A7959795879568
:102D70002A95D1F72091BC0024FD03C01092CE0407
:102D800008954091D0045091D1046091D204709183
:102D9000D304452B462B472B69F30097A105B105BA
:102DA00041F025E32A95F1F700000197A109B10947
:102DB000E1CF8091CF040C947D060F931F93CF93A6
:102DC000DF93CDB7DEB7A7970FB6F894DEBF0FBE7F
:102DD000CDBF62E080E00E94A30E6091FF0370917E
:102DE000000480910104909102041BA21AA21DA26A
:102DF0001CA21FA21EA28E010F5F1F4F21E043E005
:102E00000E947E22009709F4ADC0BC01CE018296DB
:102E10000E94A115CE0182960E945A01CE0182968F
:102E20000E9402166FED87E496E00E94D70E62E0E2
:102E300086E00E94A30E8091FE031BA21AA21DA28F
:102E40001CA21FA21EA24AE0BE016F5F7F4F90E04E
:102E50000E94B022BE016F5F7F4FCE0182960E941A
:102E6000A11562E472E0CE0101960E94F1154EA117
:102E70005FA16AA17BA1CE0101960E942C15811150
:102E800004C0CE0101960E94581560E772E0CE01A1
:102E900001960E946A150E945A01CE0101960E9475
:102EA0000216CE0182960E9402166091FC03709178
:102EB000FD03CE0101960E94AB15BE016F5F7F4FEF
:102EC000CE0182960E94D71564E772E0CE01829609
:102ED0000E946A150E945A01CE0182960E94021633
:102EE000CE0101960E9402168091FC039091FD0391
:102EF000883E934034F462E472E087E496E00E94F6
:102F0000541063E080E00E94A30E6091A2027091D1
:102F1000A302CE0101960E94AB15BE016F5F7F4FE9
:102F2000CE0182960E94D71569E772E0CE018296A3
:102F30000E946A150E945A01CE0182960E940216D2
:102F4000CE0101960E94021602E611E0F80164919A
:102F50000F5F1F4F662359F041E087E496E00E941F
:102F60008C0EF4CFCE0182960E94581553CF63E0A9
:102F70008DE00E94A30E6091FA037091FB03CE01D5
:102F800001960E94AB15BE016F5F7F4FCE01829606
:102F90000E94D71564E872E0CE0182960E946A15FD
:102FA0000E945A01CE0182960E940216CE0101961D
:102FB0000E9402168091FC039091FD03883EF3E08D
:102FC0009F0794F40E94960970E060E085E00E94FB
:102FD0003F03A7960FB6F894DEBF0FBECDBFDF91BB
:102FE000CF911F910F9108958C3D25E0920734F405
:102FF0000E94960970E060E086E0E9CF803D97404E
:1030000044F40E94960960E870E089E00E943F0362
:10301000F1CF0E94960970E060E089E0D8CF1F925E
:103020000F920FB60F9211242F933F934F935F93FC
:103030006F937F938F939F93AF93BF93EF93FF9380
:1030400088ED94E00E94B401FF91EF91BF91AF91A0
:103050009F918F917F916F915F914F913F912F91B0
:103060000F900FBE0F901F9018951F920F920FB6E2
:103070000F9211242F938F939F93EF93FF93E091DF
:10308000E804F091E9048081E091EE04F091EF040E
:1030900082FD1BC090818091F1048F5F8F7320911E
:1030A000F204821741F0E091F104F0E0E852FB4FA6
:1030B000958F8093F104FF91EF919F918F912F91C4
:1030C0000F900FBE0F901F9018958081F4CF1F9224
:1030D0000F920FB60F9211242F933F938F939F93CC
:1030E000AF93BF938091490390914A03A0914B0302
:1030F000B0914C033091480323E0230F2D3758F54E
:103100000196A11DB11D209348038093490390931C
:103110004A03A0934B03B0934C0380914D039091CD
:103120004E03A0914F03B09150030196A11DB11D14
:1031300080934D0390934E03A0934F03B09350039D
:10314000BF91AF919F918F913F912F910F900FBEA3
:103150000F901F90189526E8230F0296A11DB11D10
:10316000D2CF1F920F920FB60F9211242F933F933D
:103170004F935F936F937F938F939F93AF93BF937F
:10318000EF93FF93E091D604F091D704309749F084
:10319000A685B7858585968D91FF14C09C9189235E
:1031A000A1F4FF91EF91BF91AF919F918F917F918A
:1031B0006F915F914F913F912F910F900FBE0F90A4
:1031C0001F9018959C91892361F7A389B4899C91DC
:1031D0008589809589238C93868997890197F1F752
:1031E000608D718DA685B785558538E020E0CB01CF
:1031F0000197F1F7822F90E095958795282F4C91B4
:10320000452309F02068315091F7868D81FD209586
:103210008091D50490E001968F7399273091D40462
:10322000381799F0A091D504B0E0A85FBC4F2C935B
:103230008093D504828D938D0197F1F7A389B4898A
:103240008C919589892B8C93ACCF868D8160868FEC
:10325000F1CF1F920F920FB60F9211242F933F932D
:103260004F935F936F937F938F939F93AF93BF938E
:10327000EF93FF938091B900887F803609F44AC0AC
:10328000F0F5883209F4A7C018F5803109F49BC025
:10329000B8F4882309F4F9C0883009F494C0FF9188
:1032A000EF91BF91AF919F918F917F916F915F91BE
:1032B0004F913F912F910F900FBE0F901F90189537
:1032C000883109F488C0803251F78093AC0414C06F
:1032D000803409F49DC040F48033B9F38833F9F6A3
:1032E0008093AC0485ECB0C0803509F485C0883586
:1032F00009F496C0883499F60E94A516D0CF883973
:1033000009F48CC038F5883729F050F4883611F06C
:10331000803729F683E08093CE041092070357C0CC
:10332000883809F47BC0803919F0803809F0B7CFAC
:1033300080910703803208F071C0E091070381E0BB
:103340008E0F809307038091BB00F0E0E951FD4FA1
:1033500080833DC0803B39F0E0F4803A09F479C0C5
:10336000883A09F09CCF84E08093CE041092E60264
:103370001092E502E0918004F0918104099580911A
:10338000E50281110FC081E08093E5021092C50231
:1033900009C0803C09F4A6CF883C09F4A3CF883B40
:1033A00009F07DCFE091E60281E08E0F8093E60286
:1033B000F0E0EB53FD4F80818093BB009091E602DB
:1033C0008091E50229C08091A9048093BB0085EC1F
:1033D0008093BC0064CF9091AB048091AA049817AD
:1033E00058F5E091AB0481E08E0F8093AB04F0E0E0
:1033F000E857FB4F8081E9CFE091AB0481E08E0F6D
:103400008093AB048091BB00F0E0E857FB4F8083D2
:103410009091AB048091AA049817C8F285E8D8CFA0
:10342000E091AB0481E08E0F8093AB048091BB00F0
:10343000F0E0E857FB4F80838091AD0481115CCFB1
:1034400081E08093A80484EA8093BC001092CE04AB
:1034500026CF85EC8093BC001092CE0480910703A8
:10346000803230F4E0910703F0E0E951FD4F108223
:103470006091070370E0E0917E04F0917F0487EE95
:1034800092E00995109207030ACF1092AC0434CF52
:10349000CF93DF93EC01188219821A821B8281E09C
:1034A000888789874C835D836E837F830E94F303C3
:1034B000688379838A839B83DF91CF9108951092EB
:1034C000DB041092DA0488EE93E0A0E0B0E0809391
:1034D000DC049093DD04A093DE04B093DF042BEDB5
:1034E00031E03093D9042093D80425EC30E03093B8
:1034F000E5042093E40424EC30E03093E7042093C7
:10350000E60420EC30E03093E9042093E80421EC59
:1035100030E03093EB042093EA0422EC30E0309367
:10352000ED042093EC0426EC30E03093EF0420937C
:10353000EE041092F1041092F2041092F30410922F
:10354000F404109278051092770580937905909392
:103550007A05A0937B05B0937C058DEE91E0909366
:1035600076058093750510924A061092490687E009
:1035700092E0909348068093470687E280934B063B
:1035800084E18093500684E08093510610925206A5
:10359000109246061092450610924406109241067B
:1035A000E9EDF1E081E08C3051F09491823009F442
:1035B0009F5F21E0280F3196992309F4C6C08093BC
:1035C000420681E0809343068FEF80931906809333
:1035D0001A0680931B0680931C068FEF91E0909350
:1035E000E1058093E00588E0EFE8F1E0A2EEB5E0C8
:1035F00001900D928A95E1F788E0E7E9F1E0AAEE03
:10360000B5E001900D928A95E1F788E0EFE9F1E0ED
:10361000A2EFB5E001900D928A95E1F788E0E7EA24
:10362000F1E0AAEFB5E001900D928A95E1F788E00C
:10363000EFEAF1E0A2E0B6E001900D928A95E1F7A1
:103640008FEF9FEF90930B0680930A0690930D06E1
:1036500080930C0640E157E260E070E086ED95E073
:103660000E94481A40E355E760E070E08CEC95E07A
:103670000E94481A44EF51E060E070E082EC95E06F
:103680000E94481A40E859EA63E070E088EB95E050
:103690000E94481A40E85EEE66E370E08EEA95E02C
:1036A0000E94481A40E859EA63E070E084EA95E035
:1036B0000E94481A40EC57E269E070E08AE995E020
:1036C0000E94481A40E355E760E070E080E995E029
:1036D0000E94481A10928A0510928B0510928C0550
:1036E00010928D0510928E0510928F0584E08093C4
:1036F00083058CE390E0909385058093840584EFA7
:1037000091E0909387058093860580E991E09093FE
:1037100089058093880580918205877C8F7B8093C3
:10372000820562E084E00E9403038091820580624A
:103730008093820560E0809183050E94030380915D
:103740008205877F809382050895822F2CCFCF93A7
:10375000DF93CDB7DEB76D970FB6F894DEBF0FBE1F
:10376000CDBF789484B5826084BD84B5816084BD0A
:1037700085B5826085BD85B5816085BD80916E000F
:10378000816080936E001092810080918100826040
:10379000809381008091810081608093810080917D
:1037A00080008160809380008091B100846080936C
:1037B000B1008091B00081608093B00080917A0068
:1037C000846080937A0080917A00826080937A008E
:1037D00080917A00816080937A0080917A0080687D
:1037E00080937A001092C100E091E804F091E9041E
:1037F00082E08083E091E404F091E5041082E0919E
:10380000E604F091E7048FEC80831092F004E091DD
:10381000EC04F091ED0486E08083E091EA04F091FD
:10382000EB04808180618083E091EA04F091EB04F5
:10383000808188608083E091EA04F091EB048081CC
:1038400080688083E091EA04F091EB0480818F7DB1
:10385000808361E08AE00E94030361E087E00E94C8
:10386000030361E089E00E94030361E086E00E94B7
:10387000030361E085E00E9403030E94960961E072
:1038800087E00E9495026FEF70E08AE00E943F039C
:103890000E94660610924C0680915106823018F004
:1038A00098E090934C0680934F0662E370E080E0CE
:1038B00090E00E94C1036091520687E496E00E9466
:1038C0007C0968EE73E080E090E00E94C10360E351
:1038D00087E496E00E94730E6BE4E62E66E4F62E13
:1038E000C7010197F1F760E387E496E00E94730E49
:1038F000C7010197F1F760E387E496E00E94730E39
:1039000083E592E00197F1F760E287E496E00E9498
:10391000730E60914C06606240E087E496E00E947E
:103920008C0E84E080934D0640E06CE087E496E0E6
:103930000E948C0E0E94491082E080934E0640E067
:1039400066E087E496E00E948C0E40E062E087E447
:1039500096E00E948C0E8BE39FE10197F1F788E0DF
:103960008093520660E087E496E00E947C090E9402
:10397000491083E090E090930B0680930A0682E062
:1039800090E090930D0680930C0670E060E082E07A
:1039900096E00E94AF110E94660688E60E9421010F
:1039A00085E795E00E94F20785E795E090930F0682
:1039B00080930E0686E780931006809119068F3F4C
:1039C000E1F40E94660680ED0E94420D803609F007
:1039D00005C166EB80EE0E94D9086CE271E080E0E0
:1039E00090E00E94C10383EF0E94420D80FF54C00B
:1039F00064E670E080E090E0F4CF61E00E94950220
:103A000061E0809119060E94030380911C068F3F9C
:103A100009F034C00FB7F89480915103811127C089
:103A2000EBEBF1E08491EFECF1E09491E82FF0E022
:103A3000EE0FFF1FE258FE4FA591B491EC91E923E0
:103A400021F461E08AE00E94950261E08AE00E9430
:103A500003038CB580618CBD8CB580648CBD61E046
:103A60008DE00E94030361E08BE00E9403038091DC
:103A700051038F5F809351030FBFA5CF61E00E9478
:103A8000030361E080911A060E94030360E08091C5
:103A90001B060E94030397CF88E80E943C0D909379
:103AA0001E0680931D068AE80E943C0D9093200616
:103AB00080931F068CE80E943C0D90932206809311
:103AC00021068EE80E943C0D9093240680932306E5
:103AD00080E90E943C0D909326068093250682E99A
:103AE0000E943C0D909328068093270684E90E944B
:103AF0003C0D90932A068093290686E90E943C0D8E
:103B000090932C0680932B0688E90E943C0D90939D
:103B10002E0680932D068AE90E943C0D9093300674
:103B200080932F068CE90E943C0D9093320680937F
:103B300031068EE90E943C0D909334068093330643
:103B400081EA0E94420D8093350681EE0E943C0D71
:103B5000909337068093360683EE0E94420D809341
:103B6000380684EE0E94420D082F85EE0E94420D19
:103B700040E1049F900111248F70282B30933A0666
:103B80002093390686EE0E94420D082F85EE0E9492
:103B9000420D50E1059F9001112490E044E095957D
:103BA00087954A95E1F7822B932B90933C0680935F
:103BB0003B0687EE0E94420D80933D0625E030E0F3
:103BC00045E050E065E070E083E090E00E9420096D
:103BD00064E670E080E090E00E94C10321E030E004
:103BE00041E050E061E070E081E090E00E94200957
:103BF0000E94BB0D90E0880F892F881F990B892B9D
:103C000009F4D6C04BE050E061E971E0CE010196C5
:103C10000E949C22CE010A960E94E705082FE981A6
:103C2000E154E33118F50E2E000CFF0BE65EF14E69
:103C30000C94AB281222361E361E2622361E28224F
:103C4000361E361E361E2D1E361E361E1922242204
:103C50002222361E361E361E20228A8111E081362F
:103C600029F08B8116E08E3609F017E0CE0105961B
:103C70000E94E705F82E48E050E068E871E0CE01C8
:103C800001960E949C22CE0101960E94E705D82E43
:103C9000CE0104960E94E705C82ECE0107960E9429
:103CA000E705B82E88E60E94210160E085E795E0EF
:103CB0000E94C3072AE0E22E8B2D6E2D0E947728EA
:103CC000682F660F680F660F6B0D85E795E00E9401
:103CD000C3078C2D6E2D0E947728682F660F680F02
:103CE000660F6C0D85E795E00E94C3078D2D6E2D44
:103CF0000E947728682F660F680F660F6D0D85E7A5
:103D000095E00E94C3074F2D612F802F90E00E9405
:103D1000F405069667E070E00E948328682F811101
:103D200001C067E085E795E00E94C3079AE0E92EAD
:103D30008F2D6E2D0E947728682F660F680F660FF3
:103D40006F0D85E795E00E94C307812F6E2D0E94BD
:103D50007728682F660F680F660F610F85E795E07B
:103D60000E94C307802F6E2D0E947728682F660F50
:103D7000680F660F600F85E795E00E94C30785E72F
:103D800095E00E94F2070E94BB0D182F88E60E9462
:103D900021016FE085E795E00E94C307612F6F77EF
:103DA00085E795E00E94C30785E795E00E94F2074A
:103DB000CE0101960E94D20D86E0FE013196A1E46B
:103DC000B6E001900D928A95E1F7809146068093C6
:103DD00052038091450680937C0480914406809331
:103DE0007B040E94900D0E94E70A0E948C27E4E564
:103DF000F3E0AAE6B3E020E06D937D938D939D936D
:103E000021932F5F2630C1F70E94211060917C041E
:103E100080917B040E947D140E94B9140E9420139B
:103E20000E94DD1689E7282E84E0382E86ED95E085
:103E30000E94EA0481110E94201382EC95E00E9406
:103E4000EA04882309F46CC08091530391E0892728
:103E500080935303882309F447C090917D04809197
:103E600052038F5F809352038C337CF060917C040B
:103E7000109252036F5F60937C046C3354F4911181
:103E800033C080917B040E947D1480917C048C332C
:103E90005CF110917D04CE0101960E94D20D86E066
:103EA000FE013196A1E4B6E001900D928A95E1F70A
:103EB00080914606809352036091450660937C048E
:103EC0008091440680937B04111102C00E947D14EE
:103ED00080917B04883114F010927B0480917D04E2
:103EE00081111EC00E94B91480917D04811118C0F7
:103EF0008091530315EA811101C010E260E087E070
:103F00000E94A30E612F87E496E00E94D70E61E025
:103F100087E00E94A30E612F87E496E00E94D70EEF
:103F200088EB95E00E94EA04882309F44CC0EDE593
:103F3000F4E02FE334E081E294E063E074E0428156
:103F4000538141935193D90112964D915C911397EE
:103F50004D935D939D01DC0112964D915C911397F9
:103F60004D935D93CD01DB0112964D915C911397BA
:103F70004D935D93BD012E163F0609F76091FF0337
:103F80007091000480910104909102040E948527A1
:103F900070937A04609379048091FE0390E090938B
:103FA0005C0480935B048091FC039091FD039093EB
:103FB000200480931F048091FA039091FB03909357
:103FC0003E0480933D048EEA95E00E94EA04882333
:103FD00009F4B8C0ADE5B4E00FE314E0E1E2F4E0C9
:103FE000FD8BEC8B23E034E0398B288B1C861D86FF
:103FF0001E861F86C12CD12C7601812C912C540158
:1040000060E070E0CB014D915D912A01550F66088B
:104010007708640D751D861D971DF801419151911A
:104020008F012A01550F66087708840C951CA61C81
:10403000B71CEC89FD8941915191FD8BEC8B2A01D4
:10404000550F66087708C40CD51CE61CF71CE889D8
:10405000F98941915191F98BE88B2A01550F660836
:1040600077082C853D854E855F85240D351D461DC1
:10407000571D2C873D874E875F874BE754E04A17D3
:104080005B0709F62FE030E040E050E00E940C268C
:104090002901C501B4012FE030E040E050E00E946A
:1040A0000C264901C701B6012FE030E040E050E0A6
:1040B0000E940C2669016C857D858E859F852FE089
:1040C00030E040E050E00E940C266CED73E00EEB17
:1040D00013E080EA93E09D878C87E2E8F3E0DB0160
:1040E00012968D919C9113978D939D93BD01D8014C
:1040F00012968D919C9113978D939D938D01AC8514
:10410000BD8512968D919C9113978D939D93BD873C
:10411000AC87828193818193919388EF93E0861796
:104120009707E9F65092F9034092F8039092DB0367
:104130008092DA03D092BD03C092BC0330939F03F8
:1041400020939E038AE995E00E94EA04882309F4FB
:1041500010C11AE0C12CD12C76010E94900D0E9452
:10416000E70A4B015C01C701B6010E941325A501B6
:1041700094010E94A7260E9485276B017C0161E0C3
:1041800070E080E090E00E94C103115031F7C70158
:10419000B6012AE030E040E050E00E940C26EAE65A
:1041A000F3E084819581A681B78181939193A19356
:1041B000B193AEE7B3E0AE17BF0799F720937E0344
:1041C00030937F0340938003509381030AE613E00A
:1041D000E4E5F3E0412C512C32011C861D861E863D
:1041E0001F86812C912C5401C12CD12C76018191F8
:1041F000282F30E050E040E02E8B3F8B488F598FC6
:10420000C20ED31EE41EF51ED8012D913D914D9195
:104210005D918D012A8F3B8F4C8F5D8F820E931E97
:10422000A41EB51E889FD00111249D01BB0F440B15
:10423000550B8C859D85AE85BF85820F931FA41F6E
:10424000B51F8C879D87AE87BF872E893F89488D94
:10425000598D6A8D7B8D8C8D9D8D0E946728460EB1
:10426000571E681E791EAAE5B3E0AE17BF0709F016
:10427000BECFC0926603D0926703E0926803F092CB
:1042800069038092620390926303A0926403B092E8
:1042900065032C853D854E855F8520935E033093B5
:1042A0005F03409360035093610340925A0350921E
:1042B0005B0360925C0370925D03A6E0B0E0A30133
:1042C00092010E942B260E9411252B013C01A7017F
:1042D0009601C501B4010E9467280E9411259B0127
:1042E000AC01C301B2010E94A6264B015C01A6E00D
:1042F000B0E02C853D854E855F850E942B262B01E5
:104300003C01A7019601C701B6010E946728A301DD
:104310009201261B370B480B590BCA01B9010E94A9
:1043200011259B01AC01C501B4010E94132720E0B7
:1043300030E040EC50E40E944E250E9485279B010E
:10434000770F440B550B26503F4F4F4F5F4FA8E35D
:10435000BFEF0E94392624EF31E040E050E00E9498
:104360000C262C593F4F4F4F5F4F3093FB03209348
:10437000FA030E94FF038091820586FD0E94FF03DD
:104380008091820582FB112710F982FF15C08B7F77
:104390008093820580917D048F5F893008F05AC038
:1043A00080937D040E94F3036093900570939105C0
:1043B00080939205909393058091820586FD0E94DB
:1043C000FF038091810585FF12C08F7D8093810559
:1043D0008091800131E08327809380016FEF70E04E
:1043E000811102C070E060E08AE00E943F0380E932
:1043F00095E00E94EA04882381F110927D04809167
:104400007D04811144C00E9449100E9421106091D6
:104410007C0480917B040E947D140E94B9140E9448
:10442000DD161DC08B8114E0823709F41FCC18E023
:104430001DCC8B8113E0823709F418CC15E016CC23
:1044400019E014CC1AE012CC1BE010CC1CE00ECC0E
:1044500012E00CCC10927D04A5CF1111D0CF809129
:104460007D04811141C08CEC95E00E94EA04811129
:104470000E94DD1640E050E0452B09F4D7CC0E94A5
:10448000A001882309F4D2CC0E940000CFCC0E9466
:10449000491068E771E080E00E94021060E771E077
:1044A00081E00E94021068E671E082E00E94021042
:1044B00060E671E083E00E94021068E571E084E04C
:1044C0000E94021060E571E085E00E94021068E43D
:1044D00071E086E00E94021060E471E087E00E94D3
:1044E00002100E940A16BBCF84EA95E00E94EA04FB
:1044F000882309F4BFCF0E940A16BCCFEF920F9316
:104500001F93CF93DF93E80134E047FD34E1042E9D
:10451000000C550B57FF03C0519541955109E32EEF
:10452000022F242FAE010E94CA22CE01DF91CF912B
:104530001F910F91EF900895FB01DC0102C00590DF
:104540000D9241505040D8F70895BB274A3031F4BE
:10455000992322F4BDE2909581959F4F0C94B1224E
:10456000BB27FB015527AA27880F991FAA1FA4174D
:1045700010F0A41B83955051B9F7A05DAA3308F041
:10458000A95DA193009779F7B111B1931192CB0175
:104590000C940125A9E0B0E0E0EDF2E20C94442691
:1045A0006A01F22EB02E102FFBE3AF2EA01608F4F6
:1045B0001BE31F5F012F27E0AE014F5F5F4F0E949B
:1045C0002924BC018981982F9970913009F43FC04A
:1045D0009BE2E1FC04C09E2D9170E0FC3AC05E2D90
:1045E0005071E82FE87083FF46C084E0911101C04C
:1045F00083E0EF2DE81B8F1508F0E0E0D6018E2F49
:1046000020E2552351F1992329F0D6019C93C6014C
:1046100001966C0196012D5F3F4FE2FE24C08EE4AF
:10462000D6018C9391E411969C93119712968C93DA
:10463000D9018E2F90E281111BC0E20FF32FF11DE3
:1046400010828EEF9FEF2996ECE00C9460269DE29D
:10465000C6CF90E2C4CF2D9381508111FCCFCE0EF6
:10466000D11CE0E0D0CF8EE6D6018C9391E6DBCF73
:104670009D938150E0CF482F447082FF3DC084E07D
:10468000911101C083E08F1510F4EF2DE81BD601C6
:104690008E2F20E2552309F1992329F0D6019C930E
:1046A000C60101966C0196012D5F3F4FE2FE1BC0D3
:1046B00089E4D6018C938EE411968C93119786E44D
:1046C00012968C93D9018E2F90E2882309F4B5CFEE
:1046D0009D938150FACF2D9381508111FCCFCE0E46
:1046E000D11CE0E0D9CF89E6D6018C938EE61196F5
:1046F0008C93119786E6E4CF9B0177FF02C030E0F0
:1047000020E0A1E0B0E0911102C0B0E0A0E0F9012A
:104710003196AE0FBF1F8B2C912CBB2009F461C0CA
:104720005401EFEFAE1ABE0AAA0DBB1DFA161B0606
:1047300019F014F04F2D4A1B511188C0E3FC59C0E9
:104740007601A42FB0E2A1114FC0C40ED11C992351
:1047500009F45BC040E0D6011196F60190836D012B
:10476000552309F448C0012F060F9A81582F507124
:1047700084FF03C0913309F4015010160CF047C0B8
:10478000093008F008E0EEE2FE2E5B01A01AB10845
:1047900085019194819491082F3F320729F4D60125
:1047A000FC92F60131966F016217730794F10217BC
:1047B00013077CF5DB01A21BB30BAA24A394B12C35
:1047C000AC0EBD1EAA0DBB1D11968C912150310956
:1047D000D601119628153905F4F0F60180836D0194
:1047E000DBCFB12CA12CA0CFF701B1937F01A15059
:1047F000AACF9111B0CFD601942F50E302C05D93A0
:1048000091509111FCCFC40ED11C40E0ACCF01E01F
:10481000BACF80E3DBCF6217730731F4963388F4A5
:10482000953311F4552369F0F6018083FD01842F3F
:1048300090E2811108C0A40FB11D1C9290E080E0AD
:1048400002CF81E3F1CF91938150F3CF911183CFC8
:104850008ACF283008F027E03327DA01990F311D7D
:1048600087FD916000966105710539F432602E5F15
:104870003D9330E32A95E1F708959F3F30F080386B
:104880007105610509F03C5F3C5F3D93913008F094
:104890008068911DDF93CF931F930F93FF92EF9248
:1048A000192F987F9695E92F96959695E90FFF27F2
:1048B000EE53FF4F99273327EE24FF24A701E7018A
:1048C00005900894079428F4360FE71EF81E491F38
:1048D000511D660F771F881F991F0694A1F7059039
:1048E000079428F4E70EF81E491F561FC11D770FC5
:1048F000881F991F661F0694A1F70590079428F456
:10490000F80E491F561FC71FD11D880F991F661F1C
:10491000771F0694A1F70590079420F4490F561FBE
:10492000C71FD81F990F661F771F881F0694A9F706
:1049300084911095177041F0D695C7955795479576
:10494000F794E7941A95C1F7E8E6F0E068941590BB
:10495000159135916591959105907FE27395E118D8
:10496000F10A430B560BC90BD009C0F7E10CF11E3D
:10497000431F561FC91FD01D7EF4703311F48A9552
:10498000E6CFE894015030F0080F0AF40027021730
:1049900008F4202F2395022F7A3328F079E37D93B2
:1049A0002A95E9F710C07D932A9589F60694979584
:1049B0006795379517951794E118F10A430B560B35
:1049C000C90BD00998F023957E9173957A3308F03E
:1049D00070E37C932013B8F77E9170617D9330F083
:1049E000839571E37D9370E32A95E1F71124EF90AD
:1049F000FF900F911F91CF91DF91992787FD90959F
:104A00000895DC01FC01672F71917723E1F732975C
:104A100004C07C916D9370836291AE17BF07C8F399
:104A20000895E89409C097FB3EF4909580957095A1
:104A300061957F4F8F4F9F4F9923A9F0F92F96E9EA
:104A4000BB279395F695879577956795B795F1115F
:104A5000F8CFFAF4BB0F11F460FF1BC06F5F7F4FFC
:104A60008F4F9F4F16C0882311F096E911C077230E
:104A700021F09EE8872F762F05C0662371F096E817
:104A8000862F70E060E02AF09A95660F771F881FE6
:104A9000DAF7880F9695879597F908950E94612512
:104AA0000C94D2250E94C42538F00E94CB2520F01A
:104AB000952311F00C94BB250C94C12511240C9462
:104AC00006260E94E32570F3959FC1F3950F50E0F1
:104AD000551F629FF001729FBB27F00DB11D639FB0
:104AE000AA27F00DB11DAA1F649F6627B00DA11D56
:104AF000661F829F2227B00DA11D621F739FB00DFC
:104B0000A11D621F839FA00D611D221F749F33276B
:104B1000A00D611D231F849F600D211D822F762F04
:104B20006A2F11249F5750409AF0F1F088234AF0E1
:104B3000EE0FFF1FBB1F661F771F881F915050404D
:104B4000A9F79E3F510580F00C94BB250C940626D6
:104B50005F3FE4F3983ED4F3869577956795B795D4
:104B6000F795E7959F5FC1F7FE2B880F911D9695EE
:104B7000879597F9089597F99F6780E870E060E05E
:104B800008959FEF80EC089500240A9416161706E6
:104B900018060906089500240A941216130614062E
:104BA00005060895092E0394000C11F4882352F091
:104BB000BB0F40F4BF2B11F460FF04C06F5F7F4F49
:104BC0008F4F9F4F089557FD9058440F551F59F030
:104BD0005F3F71F04795880F97FB991F61F09F3FEA
:104BE00079F087950895121613061406551FF2CF13
:104BF0004695F1DF08C0161617061806991FF1CF63
:104C000086957105610508940895E894BB27662789
:104C10007727CB0197F90895052E97FB1EF4009492
:104C20000E94232657FD07D00E94752607FC03D05B
:104C30004EF40C94232650954095309521953F4F86
:104C40004F4F5F4F089590958095709561957F4F78
:104C50008F4F9F4F08950E949726A59F900DB49F58
:104C6000900DA49F800D911D11240895B7FF0C9401
:104C70002B260E942B26821B930B08952F923F9286
:104C80004F925F926F927F928F929F92AF92BF925C
:104C9000CF92DF92EF92FF920F931F93CF93DF9308
:104CA000CDB7DEB7CA1BDB0B0FB6F894DEBF0FBE65
:104CB000CDBF09942A88398848885F846E847D84B2
:104CC0008C849B84AA84B984C884DF80EE80FD80B4
:104CD0000C811B81AA81B981CE0FD11D0FB6F8942A
:104CE000DEBF0FBECDBFED010895A1E21A2EAA1BB3
:104CF000BB1BFD010DC0AA1FBB1FEE1FFF1FA2178C
:104D0000B307E407F50720F0A21BB30BE40BF50B88
:104D1000661F771F881F991F1A9469F76095709511
:104D2000809590959B01AC01BD01CF010895A29F94
:104D3000B001B39FC001A39F700D811D1124911D6F
:104D4000B29F700D811D1124911D08955058BB27ED
:104D5000AA270E94BE260C94D2250E94C42538F0B2
:104D60000E94CB2520F039F49F3F19F426F40C94CF
:104D7000C1250EF4E095E7FB0C94BB25E92F0E94BA
:104D8000E32558F3BA17620773078407950720F0E5
:104D900079F4A6F50C9405260EF4E0950B2EBA2FA7
:104DA000A02D0B01B90190010C01CA01A001112431
:104DB000FF27591B99F0593F50F4503E68F11A16DD
:104DC000F040A22F232F342F4427585FF3CF46956E
:104DD00037952795A795F0405395C9F77EF41F1690
:104DE000BA0B620B730B840BBAF09150A1F0FF0F5A
:104DF000BB1F661F771F881FC2F70EC0BA0F621F46
:104E0000731F841F48F4879577956795B795F79535
:104E10009E3F08F0B0CF9395880F08F09927EE0FCA
:104E20009795879508950E9427270C94D2250E9474
:104E3000CB2558F00E94C42540F029F45F3F29F0AB
:104E40000C94BB2551110C9406260C94C1250E948C
:104E5000E32568F39923B1F3552391F3951B550B83
:104E6000BB27AA2762177307840738F09F5F5F4F3D
:104E7000220F331F441FAA1FA9F335D00E2E3AF07C
:104E8000E0E832D091505040E695001CCAF72BD094
:104E9000FE2F29D0660F771F881FBB1F26173707E5
:104EA0004807AB07B0E809F0BB0B802DBF01FF2717
:104EB00093585F4F3AF09E3F510578F00C94BB2514
:104EC0000C9406265F3FE4F3983ED4F386957795DD
:104ED0006795B795F7959F5FC9F7880F911D9695D0
:104EE000879597F90895E1E0660F771F881FBB1F2C
:104EF000621773078407BA0720F0621B730B840BD9
:104F0000BA0BEE1F88F7E09508950E948C276894ED
:104F1000B1110C94062608950E94EB2588F09F5746
:104F200098F0B92F9927B751B0F0E1F0660F771FCD
:104F3000881F991F1AF0BA95C9F714C0B13091F0C3
:104F40000E940526B1E008950C940526672F782F5E
:104F50008827B85F39F0B93FCCF386957795679588
:104F6000B395D9F73EF490958095709561957F4FF4
:104F70008F4F9F4F089597FB16F40E943F280C9483
:104F8000C227E894F92F96EBFF2381F0121613063F
:104F90001406440B9395F6958795779567955795E5
:104FA0004040FF23B9F71BC099270895882351F487
:104FB0009850D2F7872B762F652F542F432F322FFF
:104FC00020E0B1F3121613061406440B88233AF0BE
:104FD0009A95440F551F661F771F881FCAF75523E0
:104FE0004AF4440F551F11F460FF04C06F5F7F4FF8
:104FF0008F4F9F4F880F9695879597F908950E9438
:105000004F2890F09F3748F4911116F00C94062623
:1050100060E070E080E89FEB089526F41B16611DA8
:10502000711D811D0C9416280C943128882371F46D
:10503000772321F09850872B762F07C0662311F431
:1050400099270DC09051862B70E060E02AF09A9568
:10505000660F771F881FDAF7880F9695879597F95F
:1050600008959F3F31F0915020F48795779567958B
:10507000B795880F911D9695879597F90895909506
:1050800080957095609550954095309521953F4F4E
:105090004F4F5F4F6F4F7F4F8F4F9F4F08950E942D
:1050A000EB25A0F0BEE7B91788F4BB279F3860F462
:1050B0001616B11D672F782F8827985FF7CF869532
:1050C00077956795B11D93959639C8F30895DB01DF
:1050D0008F939F930E942B26BF91AF91A29F800D2B
:1050E000911DA39F900DB29F900D11240895991BBF
:1050F00079E004C0991F961708F0961B881F7A95CF
:10510000C9F780950895AA1BBB1B51E107C0AA1FD0
:10511000BB1FA617B70710F0A61BB70B881F991F58
:105120005A95A9F780959095BC01CD01089597FBFC
:10513000072E16F4009407D077FD09D00E9483282B
:1051400007FC05D03EF4909581959F4F089570958A
:1051500061957F4F0895EE0FFF1F0590F491E02DAC
:105160000994DF93CF931F930F939A9DF02D219F66
:10517000F00D8B9DF00D8A9DE02DF10D039FF00D3C
:10518000029FE00DF11D4E9DE00DF11D5E9DF00DA5
:105190004F9DF00D7F936F93BF92AF925F934F93AC
:1051A000D5010E9497268B01AC01D7010E9497265A
:1051B000EB01E80FF91FD6010E9400292F913F91C2
:1051C000D6010E949726C60FD71FE81FF91FAF917F
:1051D000BF910E9400292F913F910E949726C60FF0
:1051E000D71FE81FF91FD6010E949726E60FF71F69
:1051F0009801BE01CF010F911F91CF91DF910895CA
:105200000E949726460F571FC81FD91F08F43196D2
:105210000895689401C0E894F92FF12B12F00C94D2
:105220003D29A0E0B0E0E7E1F9E20C944426092E24
:10523000059422F40E949929112392F4F0E80F2694
:10524000FFEFE094F09400951095B094C094D09442
:10525000A194BF0ACF0ADF0AEF0AFF0A0F0B1F0B48
:105260000E94482907FC0E949929CDB7DEB7ECE0DF
:105270000C946026689401C0E8948F929F92CF931B
:10528000DF930E944829DF91CF919F908F900895DE
:1052900088249924F401E401B0E49F93AA279A1585
:1052A0008B049C04ED05FE05CF05D007A10798F4FB
:1052B000AD2FDC2FCF2FFE2FE92D982C892E982F84
:1052C000872F762F652F542F432F322F2227B85048
:1052D00031F7BF9127C01B2EBF91BB27220F331F71
:1052E000441F551F661F771F881F991F881C991C14
:1052F000EE1FFF1FCC1FDD1FAA1FBB1F8A149B04BC
:10530000EC05FD05CE05DF05A007B10748F08A18BA
:105310009B08EC09FD09CE09DF09A00BB10B216048
:105320001A94E1F62EF49401AF01BE01CD01000CF8
:10533000089560957095809590953095409550951D
:1053400021953F4F4F4F5F4F6F4F7F4F8F4F9F4F75
:105350000895002E083090F0982F872F762F652F14
:10536000542F432F322F22270850F4CF220F331F00
:10537000441F551F661F771F881F991F0A95B2F794
:10538000002D089597FD1094002E083098F00850D5
:10539000232F342F452F562F672F782F892F912DAC
:1053A000F4CF159497958795779567955795479579
:1053B000379527950A95AAF71124002D08952A0DEF
:1053C0003B1D4C1D5D1D6E1D7F1D801F911F08958F
:1053D0002A193B094C095D096E097F09800B910B65
:1053E00008950024A7FD00942A17300540055005B4
:1053F000600570058005900508950F931F93CF9366
:10540000DF938230910510F482E090E0E091550640
:10541000F091560630E020E0B0E0A0E0309799F43B
:105420002115310509F44AC0281B390B24303105F8
:10543000D8F58A819B816115710589F1FB01938300
:105440008283FE0111C0408151810281138148177E
:105450005907E0F04817590799F4109761F0129630
:105460000C93129713961C933296CF01DF91CF9134
:105470001F910F9108950093550610935606F4CF8F
:105480002115310551F04217530738F0A901DB010E
:105490009A01BD01DF01F801C1CFEF01F9CF90936F
:1054A000560680935506CDCFFE01E20FF31F819380
:1054B00091932250310939832883D7CF2091530605
:1054C00030915406232B41F42091830130918401C3
:1054D000309354062093530620918101309182012C
:1054E0002115310541F42DB73EB74091850150910A
:1054F0008601241B350BE0915306F0915406E21708
:10550000F307A0F42E1B3F0B2817390778F0AC01E6
:105510004E5F5F4F2417350748F04E0F5F1F5093C3
:10552000540640935306819391939FCFF0E0E0E0BF
:105530009CCFCF93DF930097E9F0FC013297138261
:105540001282A0915506B0915606ED0130E020E0A0
:105550001097A1F420813181820F931F209153066F
:10556000309154062817390709F061C0F0935406AA
:10557000E0935306DF91CF910895EA01CE17DF073C
:10558000E8F54A815B819E0141155105B1F7E901BA
:10559000FB83EA8349915991C40FD51FEC17FD078E
:1055A00061F4808191810296840F951FE9019983AE
:1055B0008883828193819B838A83F0E0E0E0129666
:1055C0008D919C9113970097B9F52D913C9111976E
:1055D000CD010296820F931F2091530630915406FD
:1055E0002817390739F6309751F510925606109260
:1055F0005506B0935406A0935306BCCFD383C28301
:1056000040815181840F951FC817D90761F44E5FFF
:105610005F4F88819981480F591F518340838A8148
:105620009B81938382832115310509F0B0CFF093DC
:105630005606E09355069ECFFD01DC01C0CF1382D4
:105640001282D7CFB0E0A0E0E8E2FBE20C94402663
:105650008C01009751F4CB010E94FD298C01C801F7
:10566000CDB7DEB7E0E10C945C26FC01E60FF71F36
:105670009C0122503109E217F30708F49DC0D901BB
:10568000CD91DC911197C617D70798F0C530D10599
:1056900030F3CE0104978617970708F3C61BD70B84
:1056A0002297C193D1936D937C93CF010E94992A45
:1056B000D6CF5B01AC1ABD0A4C018C0E9D1EA09189
:1056C0005506B0915606512C412CF12CE12C109727
:1056D00031F580915306909154068815990509F08B
:1056E0005CC04616570608F058C080918101909121
:1056F0008201009741F48DB79EB74091850150918A
:105700008601841B950BE817F90708F055C0F09344
:105710005406E0935306F90171836083A0CF8D9105
:105720009C91119712966C90129713967C901397F8
:10573000A815B90559F56C0142E0C40ED11CCA1474
:10574000DB0420F1AC014A195B09DA0112961597C6
:1057500080F06282738251834083D9016D937C9380
:10576000E114F10471F0D7011396FC93EE931297B4
:1057700076CF22968C0F9D1FF90191838083F301D0
:10578000EFCFF0935606E093550669CF48165906B9
:1057900008F42C017D01D3019ACFCB010E94FD2991
:1057A0007C01009749F0AE01B8010E94DF2BC801CF
:1057B0000E94992A870153CF10E000E050CFFB01EF
:1057C000DC0102C001900D9241505040D8F708957D
:1057D000FB01DC0101900D920020E1F70895F8949F
:0257E000FFCFF9
:1057E2001F000000001F1F1F1F1F1F0000001F1FA0
:1057F2001F1F1F1F1F1F1E1C00000000001F1F1F56
:105802001F1F1F1F1F1F0F071C1E1F1F1F1F1F1FD2
:105812001F1F1F0000000000070F1F1F1F1F1F1F59
:10582200001F1F1F1F1F1F1F00001F1F1F1F1F1FE3
:105832000000001F1F1F1F1F000000001F1F1F1F4F
:1058420000000000001F1F1F0000000000001F1FBB
:10585200000000000000001F1F1F1F1F1F1F1F1F2F
:10586200010000570680000000400014005400FFB1
:1058720001860000000000FF01870000000000FF19
:1058820001880000000000FF0179A000000000FF75
:105892000179000000000086028A028E02920296BE
:1058A200029A029E020000000038052D0193091D94
:1058B200019405AC05200500000000D6012D01630E
:1058C20001230294017201860100000000C30796C1
:1058D2000793091D018F077C076D0700000000E593
:1058E20005A31600000000D70E2D019309200665BE
:1058F20072726F723A2063616E277420676574203A
:105902004D482D5A313920726573706F6E73652E52
:10591200000D0A00202020202020202020202020EE
:10592200202020007420687200742064617900686D
:1059320020687200682064617900702068720070CB
:1059420020646179006320687200632064617900D9
:10595200252020002070706D00206D6D2020726166
:10596200696E2000250053554E004D4F4E00545590
:10597200450057454400544855004652590053418A
:025982005400CF
:107E0000112484B714BE81FFF0D085E080938100F7
:107E100082E08093C00088E18093C10086E0809377
:107E2000C20080E18093C4008EE0C9D0259A86E02C
:107E300020E33CEF91E0309385002093840096BBD3
:107E4000B09BFECF1D9AA8958150A9F7CC24DD24C4
:107E500088248394B5E0AB2EA1E19A2EF3E0BF2EE7
:107E6000A2D0813461F49FD0082FAFD0023811F036
:107E7000013811F484E001C083E08DD089C08234E0
:107E800011F484E103C0853419F485E0A6D080C0E4
:107E9000853579F488D0E82EFF2485D0082F10E0AE
:107EA000102F00270E291F29000F111F8ED06801E7
:107EB0006FC0863521F484E090D080E0DECF843638
:107EC00009F040C070D06FD0082F6DD080E0C81688
:107ED00080E7D80618F4F601B7BEE895C0E0D1E017
:107EE00062D089930C17E1F7F0E0CF16F0E7DF06D8
:107EF00018F0F601B7BEE89568D007B600FCFDCFD4
:107F0000A601A0E0B1E02C9130E011968C91119780
:107F100090E0982F8827822B932B1296FA010C0160
:107F200087BEE89511244E5F5F4FF1E0A038BF0790
:107F300051F7F601A7BEE89507B600FCFDCF97BE46
:107F4000E89526C08437B1F42ED02DD0F82E2BD052
